:100000000C9446000C9465000C9465000C946500FB
:100010000C9465000C9465000C9465000C946500CC
:100020000C9465000C9465000C9465000C946500BC
:100030000C9465000C9408010C9465000C94650008
:100040000C9465000C9465000C9465000C9465009C
:100050000C9465000C9465000C9465000C9465008C
:100060000C9465000C9465000C9465000C9465007C
:100070000C9465000C9465000C9465000C9465006C
:100080000C9465000C9465000C94650011241FBE4F
:10009000CFEFD0E4DEBFCDBF11E0A0E0B1E0E0E201
:1000A000F7E000E00BBF02C007900D92A231B1074C
:1000B000D9F711E0A2E1B1E001C01D92A332B1076E
:1000C000E1F70E94AA020C948E030C940000CF93D7
:1000D000DF9300D01F92CDB7DEB789837B836A831D
:1000E00089818A3031F48A819B81BC018DE00E9434
:1000F000670080EC90E0FC018081882F90E08072A6
:1001000099270097B1F386EC90E02981FC012083C8
:1001100080E090E00F900F900F90DF91CF910895C5
:10012000CF93DF9300D000D0CDB7DEB769837A8359
:100130008B839C8389819A81AB81BC8180930E01E2
:1001400090930F01A0931001B093110180910E01C3
:1001500090910F01A0911001B091110180931301B2
:1001600090931401A0931501B09316010F900F9076
:100170000F900F90DF91CF910895CF93DF93CDB77C
:10018000DEB781E890E02BE0FC01208388E890E076
:100190002DE730E0FC01318320838FE690E022E000
:1001A000FC01208384E890E0FC01118210828091A0
:1001B0000E0190910F01A0911001B0911101809357
:1001C000130190931401A0931501B09316018FE5CC
:1001D00090E02FE530E0F90120812068FC012083C8
:1001E000DF91CF910895CF93DF93CDB7DEB781E84C
:1001F00090E0FC011082DF91CF910895CF93DF93BF
:10020000CDB7DEB781E080931201DF91CF910895E1
:100210001F920F9200905F000F92112400905B00DC
:100220000F922F933F934F935F936F937F938F938F
:100230009F93AF93BF93EF93FF93CF93DF93CDB78C
:10024000DEB78091130190911401A0911501B09136
:1002500016010197A109B10980931301909314012C
:10026000A0931501B0931601809113019091140190
:10027000A0911501B09116010097A105B10591F467
:100280000E94FE0080910E0190910F01A09110013B
:10029000B09111018093130190931401A093150163
:1002A000B0931601DF91CF91FF91EF91BF91AF9184
:1002B0009F918F917F916F915F914F913F912F917E
:1002C0000F9000925B000F9000925F000F901F90C4
:1002D0001895CF93DF93CDB7DEB780912101909130
:1002E00022018130910589F08130910538F082300A
:1002F000910591F083309105B1F01CC081E090E050
:1003000090932201809321011AC082E090E09093A3
:1003100022018093210113C083E090E09093220199
:10032000809321010CC081E090E0909322018093A2
:10033000210105C01092220110922101000080913C
:100340002101909122018230910559F0833091056D
:1003500061F08130910509F00CC081E080931801B3
:1003600008C082E08093180104C084E080931801E3
:100370000000DF91CF910895CF93DF93CDB7DEB723
:1003800080911B0190911C018130910571F08130A9
:10039000910520F08230910579F015C081E090E060
:1003A00090931C0180931B0113C082E090E0909316
:1003B0001C0180931B010CC081E090E090931C0114
:1003C00080931B0105C010921C0110921B010000BC
:1003D00080911B0190911C018130910521F08230A8
:1003E000910521F007C01092200104C088E080939D
:1003F00020010000DF91CF910895CF93DF93CDB717
:10040000DEB780911E0190911F018130910571F03E
:100410008130910520F08230910559F131C081E0A1
:1004200090E090931F0180931E012FC080E290E026
:10043000FC018081882F90E084709927009739F41F
:1004400082E090E090931F0180931E0111C080E232
:1004500090E0FC018081882F90E0847099270097BC
:1004600039F081E090E090931F0180931E010DC050
:100470000CC081E090E090931F0180931E0105C0A5
:1004800010921F0110921E01000080911E01909198
:100490001F018130910521F08230910541F017C094
:1004A00080E990E0FC01108210921D0110C080E9EB
:1004B00090E020E1FC0120838AE990E02CE730E025
:1004C000FC013183208380E180931D010000DF91D6
:1004D000CF910895CF93DF93CDB7DEB78091190107
:1004E00090911A01009721F08130910541F00EC0E2
:1004F00081E090E090931A01809319010CC081E093
:1005000090E090931A018093190105C01092220186
:100510001092210100008091190190911A018130FF
:10052000910509F014C09091180180912001292FA4
:10053000282B80E990E0FC018081822B80931701B9
:1005400085E290E020911701FC0120830000DF91FB
:10055000CF910895CF93DF93CDB7DEB764970FB6F1
:10056000F894DEBF0FBECDBF8CE291E0A0E0B0E01A
:1005700089839A83AB83BC8388EE93E0A0E0B0E0EC
:100580008D839E83AF83B88782E090E0A0E0B0E0E7
:1005900089879A87AB87BC8782E090E0A0E0B0E0D3
:1005A0008D879E87AF87B88B82E090E0A0E0B0E0B7
:1005B000898B9A8BAB8BBC8B81E290E0FC01108223
:1005C00082E290E02FEFFC01208384E290E02FEFA5
:1005D000FC01208385E290E0FC01108289899A89E0
:1005E000AB89BC89BC01CD010E9490000E94BD0076
:1005F000109222011092210110921C0110921B01F5
:1006000010921F0110921E0110921A0110921901EE
:1006100089819A81AB81BC818C32F1E09F07A10571
:10062000B10530F00E94690119821A821B821C8276
:100630008D819E81AF81B885883E23E09207A10518
:10064000B10530F00E94BC011D821E821F821886F7
:1006500089859A85AB85BC8582309105A105B10558
:1006600030F00E94FD0119861A861B861C868D8536
:100670009E85AF85B88984369105A105B10530F016
:100680000E946A021D861E861F86188A00008091BD
:1006900012018823E1F31092120129813A814B81E2
:1006A0005C8189899A89AB89BC89820F931FA41FB9
:1006B000B51F89839A83AB83BC832D813E814F8193
:1006C000588589899A89AB89BC89820F931FA41F99
:1006D000B51F8D839E83AF83B88729853A854B8567
:1006E0005C8589899A89AB89BC89820F931FA41F75
:1006F000B51F89879A87AB87BC872D853E854F8537
:10070000588989899A89AB89BC89820F931FA41F54
:10071000B51F8D879E87AF87B88B7ACFF894FFCFB0
:10072000000000020000000067000000000001005F
:020730000000C7
:00000001FF
